{
  "contractName": "ServiceRegistry",
  "abi": [
    {
      "anonymous": false,
      "inputs": [
        {
          "indexed": false,
          "name": "serviceID",
          "type": "string"
        },
        {
          "indexed": false,
          "name": "changeType",
          "type": "string"
        }
      ],
      "name": "ChangeService",
      "type": "event"
    },
    {
      "anonymous": false,
      "inputs": [
        {
          "indexed": false,
          "name": "serviceID",
          "type": "string"
        }
      ],
      "name": "NewService",
      "type": "event"
    },
    {
      "constant": true,
      "inputs": [],
      "name": "getServiceList",
      "outputs": [
        {
          "name": "",
          "type": "string[]"
        }
      ],
      "payable": false,
      "stateMutability": "view",
      "type": "function"
    },
    {
      "constant": false,
      "inputs": [
        {
          "components": [
            {
              "components": [
                {
                  "name": "id",
                  "type": "string"
                },
                {
                  "name": "manager",
                  "type": "address"
                },
                {
                  "name": "serviceAccount",
                  "type": "address"
                },
                {
                  "name": "companyName",
                  "type": "string"
                },
                {
                  "name": "companyEmail",
                  "type": "string"
                },
                {
                  "name": "companyContact",
                  "type": "string"
                },
                {
                  "name": "description",
                  "type": "string"
                }
              ],
              "name": "header",
              "type": "tuple"
            },
            {
              "components": [
                {
                  "components": [
                    {
                      "name": "image",
                      "type": "string"
                    },
                    {
                      "name": "imageAccessUser",
                      "type": "string"
                    }
                  ],
                  "name": "ct",
                  "type": "tuple"
                },
                {
                  "components": [
                    {
                      "name": "location",
                      "type": "string[]"
                    },
                    {
                      "name": "accessToken",
                      "type": "string"
                    },
                    {
                      "name": "nodeID",
                      "type": "string"
                    },
                    {
                      "name": "networkID",
                      "type": "string"
                    },
                    {
                      "name": "serviceProtocol",
                      "type": "string"
                    },
                    {
                      "name": "servicePoints",
                      "type": "string[]"
                    },
                    {
                      "name": "servicePort",
                      "type": "string"
                    },
                    {
                      "name": "nodeMountService",
                      "type": "string"
                    },
                    {
                      "name": "nodeMountETCD",
                      "type": "string"
                    },
                    {
                      "name": "secret",
                      "type": "string"
                    }
                  ],
                  "name": "kct",
                  "type": "tuple"
                }
              ],
              "name": "runtime",
              "type": "tuple"
            },
            {
              "components": [
                {
                  "name": "logs",
                  "type": "string[]"
                }
              ],
              "name": "backup",
              "type": "tuple"
            },
            {
              "name": "state",
              "type": "uint8"
            },
            {
              "name": "curReplicas",
              "type": "uint256"
            },
            {
              "name": "serviceLocationIndex",
              "type": "uint256"
            },
            {
              "name": "serviceStartTime",
              "type": "uint256"
            },
            {
              "name": "serviceEndTime",
              "type": "uint256"
            }
          ],
          "name": "service",
          "type": "tuple"
        }
      ],
      "name": "register",
      "outputs": [],
      "payable": false,
      "stateMutability": "nonpayable",
      "type": "function"
    },
    {
      "constant": false,
      "inputs": [
        {
          "name": "id",
          "type": "string"
        },
        {
          "name": "secret",
          "type": "string"
        },
        {
          "name": "replicas",
          "type": "uint256"
        }
      ],
      "name": "startService",
      "outputs": [],
      "payable": false,
      "stateMutability": "nonpayable",
      "type": "function"
    },
    {
      "constant": false,
      "inputs": [
        {
          "name": "id",
          "type": "string"
        },
        {
          "name": "replicas",
          "type": "uint256"
        }
      ],
      "name": "updateReplicas",
      "outputs": [],
      "payable": false,
      "stateMutability": "nonpayable",
      "type": "function"
    },
    {
      "constant": true,
      "inputs": [
        {
          "name": "id",
          "type": "string"
        }
      ],
      "name": "getService",
      "outputs": [
        {
          "components": [
            {
              "components": [
                {
                  "name": "id",
                  "type": "string"
                },
                {
                  "name": "manager",
                  "type": "address"
                },
                {
                  "name": "serviceAccount",
                  "type": "address"
                },
                {
                  "name": "companyName",
                  "type": "string"
                },
                {
                  "name": "companyEmail",
                  "type": "string"
                },
                {
                  "name": "companyContact",
                  "type": "string"
                },
                {
                  "name": "description",
                  "type": "string"
                }
              ],
              "name": "header",
              "type": "tuple"
            },
            {
              "components": [
                {
                  "components": [
                    {
                      "name": "image",
                      "type": "string"
                    },
                    {
                      "name": "imageAccessUser",
                      "type": "string"
                    }
                  ],
                  "name": "ct",
                  "type": "tuple"
                },
                {
                  "components": [
                    {
                      "name": "location",
                      "type": "string[]"
                    },
                    {
                      "name": "accessToken",
                      "type": "string"
                    },
                    {
                      "name": "nodeID",
                      "type": "string"
                    },
                    {
                      "name": "networkID",
                      "type": "string"
                    },
                    {
                      "name": "serviceProtocol",
                      "type": "string"
                    },
                    {
                      "name": "servicePoints",
                      "type": "string[]"
                    },
                    {
                      "name": "servicePort",
                      "type": "string"
                    },
                    {
                      "name": "nodeMountService",
                      "type": "string"
                    },
                    {
                      "name": "nodeMountETCD",
                      "type": "string"
                    },
                    {
                      "name": "secret",
                      "type": "string"
                    }
                  ],
                  "name": "kct",
                  "type": "tuple"
                }
              ],
              "name": "runtime",
              "type": "tuple"
            },
            {
              "components": [
                {
                  "name": "logs",
                  "type": "string[]"
                }
              ],
              "name": "backup",
              "type": "tuple"
            },
            {
              "name": "state",
              "type": "uint8"
            },
            {
              "name": "curReplicas",
              "type": "uint256"
            },
            {
              "name": "serviceLocationIndex",
              "type": "uint256"
            },
            {
              "name": "serviceStartTime",
              "type": "uint256"
            },
            {
              "name": "serviceEndTime",
              "type": "uint256"
            }
          ],
          "name": "service",
          "type": "tuple"
        }
      ],
      "payable": false,
      "stateMutability": "view",
      "type": "function"
    },
    {
      "constant": false,
      "inputs": [
        {
          "name": "id",
          "type": "string"
        },
        {
          "components": [
            {
              "name": "location",
              "type": "string[]"
            },
            {
              "name": "accessToken",
              "type": "string"
            },
            {
              "name": "nodeID",
              "type": "string"
            },
            {
              "name": "networkID",
              "type": "string"
            },
            {
              "name": "serviceProtocol",
              "type": "string"
            },
            {
              "name": "servicePoints",
              "type": "string[]"
            },
            {
              "name": "servicePort",
              "type": "string"
            },
            {
              "name": "nodeMountService",
              "type": "string"
            },
            {
              "name": "nodeMountETCD",
              "type": "string"
            },
            {
              "name": "secret",
              "type": "string"
            }
          ],
          "name": "kubeContext",
          "type": "tuple"
        }
      ],
      "name": "updateKubeContext",
      "outputs": [],
      "payable": false,
      "stateMutability": "nonpayable",
      "type": "function"
    },
    {
      "constant": false,
      "inputs": [
        {
          "name": "id",
          "type": "string"
        },
        {
          "components": [
            {
              "name": "image",
              "type": "string"
            },
            {
              "name": "imageAccessUser",
              "type": "string"
            }
          ],
          "name": "container",
          "type": "tuple"
        }
      ],
      "name": "updateContainer",
      "outputs": [],
      "payable": false,
      "stateMutability": "nonpayable",
      "type": "function"
    },
    {
      "constant": false,
      "inputs": [
        {
          "name": "id",
          "type": "string"
        }
      ],
      "name": "pauseService",
      "outputs": [],
      "payable": false,
      "stateMutability": "nonpayable",
      "type": "function"
    },
    {
      "constant": false,
      "inputs": [
        {
          "name": "id",
          "type": "string"
        }
      ],
      "name": "stopService",
      "outputs": [],
      "payable": false,
      "stateMutability": "nonpayable",
      "type": "function"
    },
    {
      "constant": false,
      "inputs": [
        {
          "name": "id",
          "type": "string"
        },
        {
          "name": "log",
          "type": "string"
        }
      ],
      "name": "backupLog",
      "outputs": [],
      "payable": false,
      "stateMutability": "nonpayable",
      "type": "function"
    },
    {
      "constant": true,
      "inputs": [
        {
          "name": "id",
          "type": "string"
        }
      ],
      "name": "getLatestBackupLogs",
      "outputs": [
        {
          "name": "log",
          "type": "string"
        }
      ],
      "payable": false,
      "stateMutability": "view",
      "type": "function"
    },
    {
      "constant": true,
      "inputs": [
        {
          "name": "id",
          "type": "string"
        }
      ],
      "name": "getAllBackupLogs",
      "outputs": [
        {
          "name": "logs",
          "type": "string[]"
        }
      ],
      "payable": false,
      "stateMutability": "view",
      "type": "function"
    },
    {
      "constant": false,
      "inputs": [
        {
          "name": "id",
          "type": "string"
        },
        {
          "name": "curIndex",
          "type": "uint256"
        }
      ],
      "name": "updateServiceLocation",
      "outputs": [],
      "payable": false,
      "stateMutability": "nonpayable",
      "type": "function"
    },
    {
      "constant": true,
      "inputs": [
        {
          "name": "id",
          "type": "string"
        }
      ],
      "name": "getServiceLocation",
      "outputs": [
        {
          "name": "protocol",
          "type": "string"
        },
        {
          "name": "point",
          "type": "string"
        },
        {
          "name": "port",
          "type": "string"
        }
      ],
      "payable": false,
      "stateMutability": "view",
      "type": "function"
    }
  ],
  "bytecode": "0x608060405234801561001057600080fd5b5061470a806100206000396000f3fe608060405234801561001057600080fd5b5060043610610107576000357c010000000000000000000000000000000000000000000000000000000090048063a066515f116100a9578063b8025b5711610083578063b8025b5714610276578063bd9e014514610292578063c647191b146102ae578063e2e35504146102cc57610107565b8063a066515f1461020e578063b45bd5e51461022a578063b53a08f41461024657610107565b8063605e3335116100e5578063605e333514610160578063736e49b214610190578063794758be146101c257806399a0f0af146101f257610107565b8063162f7f7c1461010c57806354e016b5146101285780635d59184814610144575b600080fd5b610126600480360361012191908101906136db565b6102e8565b005b610142600480360361013d9190810190613933565b61043f565b005b61015e60048036036101599190810190613807565b6108e6565b005b61017a600480360361017591908101906136db565b610a37565b6040516101879190614192565b60405180910390f35b6101aa60048036036101a591908101906136db565b610bf8565b6040516101b9939291906141d6565b60405180910390f35b6101dc60048036036101d791908101906136db565b610f98565b6040516101e9919061444a565b60405180910390f35b61020c60048036036102079190810190613788565b611e24565b005b6102286004803603610223919081019061371c565b611fdf565b005b610244600480360361023f91908101906136db565b61212f565b005b610260600480360361025b91908101906136db565b612286565b60405161026d91906141b4565b60405180910390f35b610290600480360361028b9190810190613873565b61248c565b005b6102ac60048036036102a791908101906138df565b6126c7565b005b6102b66127dc565b6040516102c39190614192565b60405180910390f35b6102e660048036036102e191908101906138df565b612902565b005b803373ffffffffffffffffffffffffffffffffffffffff16600082604051610310919061417b565b908152602001604051809103902060000160010160009054906101000a900473ffffffffffffffffffffffffffffffffffffffff1673ffffffffffffffffffffffffffffffffffffffff161461039b576040517f08c379a00000000000000000000000000000000000000000000000000000000081526004016103929061442a565b60405180910390fd5b60036000836040516103ad919061417b565b908152602001604051809103902060140160006101000a81548160ff021916908360038111156103d957fe5b0217905550426000836040516103ef919061417b565b9081526020016040518091039020601801819055507f9bb5842d229eac67f028830d67e443a330e336630ba1212693461b1b691e20b8826040516104339190614257565b60405180910390a15050565b80606081600001516000015190506000600381111561045a57fe5b60008260405161046a919061417b565b908152602001604051809103902060140160009054906101000a900460ff16600381111561049457fe5b146104d4576040517f08c379a00000000000000000000000000000000000000000000000000000000081526004016104cb906143ea565b60405180910390fd5b60608360000151600001519050836000826040516104f2919061417b565b90815260200160405180910390206000820151816000016000820151816000019080519060200190610525929190612a5a565b5060208201518160010160006101000a81548173ffffffffffffffffffffffffffffffffffffffff021916908373ffffffffffffffffffffffffffffffffffffffff16021790555060408201518160020160006101000a81548173ffffffffffffffffffffffffffffffffffffffff021916908373ffffffffffffffffffffffffffffffffffffffff16021790555060608201518160030190805190602001906105d0929190612a5a565b5060808201518160040190805190602001906105ed929190612a5a565b5060a082015181600501908051906020019061060a929190612a5a565b5060c0820151816006019080519060200190610627929190612a5a565b5050506020820151816007016000820151816000016000820151816000019080519060200190610658929190612a5a565b506020820151816001019080519060200190610675929190612a5a565b505050602082015181600201600082015181600001908051906020019061069d929190612ada565b5060208201518160010190805190602001906106ba929190612a5a565b5060408201518160020190805190602001906106d7929190612a5a565b5060608201518160030190805190602001906106f4929190612a5a565b506080820151816004019080519060200190610711929190612a5a565b5060a082015181600501908051906020019061072e929190612ada565b5060c082015181600601908051906020019061074b929190612a5a565b5060e0820151816007019080519060200190610768929190612a5a565b50610100820151816008019080519060200190610786929190612a5a565b506101208201518160090190805190602001906107a4929190612a5a565b505050505060408201518160130160008201518160000190805190602001906107ce929190612ada565b50505060608201518160140160006101000a81548160ff021916908360038111156107f557fe5b02179055506080820151816015015560a0820151816016015560c0820151816017015560e082015181601801559050506001600085600001516020015173ffffffffffffffffffffffffffffffffffffffff1673ffffffffffffffffffffffffffffffffffffffff1681526020019081526020016000208190806001815401808255809150509060018203906000526020600020016000909192909190915090805190602001906108a7929190612b3a565b50507f0c5354bce940f3374f3999939428ffc2ba430816423bba0c70c7e25c913915f1816040516108d891906141b4565b60405180910390a150505050565b813373ffffffffffffffffffffffffffffffffffffffff1660008260405161090e919061417b565b908152602001604051809103902060000160010160009054906101000a900473ffffffffffffffffffffffffffffffffffffffff1673ffffffffffffffffffffffffffffffffffffffff1614610999576040517f08c379a00000000000000000000000000000000000000000000000000000000081526004016109909061442a565b60405180910390fd5b816000846040516109aa919061417b565b908152602001604051809103902060070160000160008201518160000190805190602001906109da929190612a5a565b5060208201518160010190805190602001906109f7929190612a5a565b509050507f9bb5842d229eac67f028830d67e443a330e336630ba1212693461b1b691e20b883604051610a2a91906142f6565b60405180910390a1505050565b6060813373ffffffffffffffffffffffffffffffffffffffff16600082604051610a61919061417b565b908152602001604051809103902060000160010160009054906101000a900473ffffffffffffffffffffffffffffffffffffffff1673ffffffffffffffffffffffffffffffffffffffff1614610aec576040517f08c379a0000000000000000000000000000000000000000000000000000000008152600401610ae39061442a565b60405180910390fd5b600083604051610afc919061417b565b9081526020016040518091039020601301600001805480602002602001604051908101604052809291908181526020016000905b82821015610bec578382906000526020600020018054600181600116156101000203166002900480601f016020809104026020016040519081016040528092919081815260200182805460018160011615610100020316600290048015610bd85780601f10610bad57610100808354040283529160200191610bd8565b820191906000526020600020905b815481529060010190602001808311610bbb57829003601f168201915b505050505081526020019060010190610b30565b50505050915050919050565b60608060608360006003811115610c0b57fe5b600082604051610c1b919061417b565b908152602001604051809103902060140160009054906101000a900460ff166003811115610c4557fe5b1415610c86576040517f08c379a0000000000000000000000000000000000000000000000000000000008152600401610c7d906143ca565b60405180910390fd5b8460026003811115610c9457fe5b600082604051610ca4919061417b565b908152602001604051809103902060140160009054906101000a900460ff166003811115610cce57fe5b14610d0e576040517f08c379a0000000000000000000000000000000000000000000000000000000008152600401610d059061440a565b60405180910390fd5b60008087604051610d1f919061417b565b9081526020016040518091039020601601549050600087604051610d43919061417b565b90815260200160405180910390206007016002016005018181548110610d6557fe5b906000526020600020018054600181600116156101000203166002900480601f016020809104026020016040519081016040528092919081815260200182805460018160011615610100020316600290048015610e035780601f10610dd857610100808354040283529160200191610e03565b820191906000526020600020905b815481529060010190602001808311610de657829003601f168201915b50505050509450600087604051610e1a919061417b565b90815260200160405180910390206007016002016006018054600181600116156101000203166002900480601f016020809104026020016040519081016040528092919081815260200182805460018160011615610100020316600290048015610ec55780601f10610e9a57610100808354040283529160200191610ec5565b820191906000526020600020905b815481529060010190602001808311610ea857829003601f168201915b50505050509350600087604051610edc919061417b565b90815260200160405180910390206007016002016004018054600181600116156101000203166002900480601f016020809104026020016040519081016040528092919081815260200182805460018160011615610100020316600290048015610f875780601f10610f5c57610100808354040283529160200191610f87565b820191906000526020600020905b815481529060010190602001808311610f6a57829003601f168201915b505050505095505050509193909250565b610fa0612bba565b813373ffffffffffffffffffffffffffffffffffffffff16600082604051610fc8919061417b565b908152602001604051809103902060000160010160009054906101000a900473ffffffffffffffffffffffffffffffffffffffff1673ffffffffffffffffffffffffffffffffffffffff1614611053576040517f08c379a000000000000000000000000000000000000000000000000000000000815260040161104a9061442a565b60405180910390fd5b600083604051611063919061417b565b908152602001604051809103902060405180610100016040529081600082016040518060e0016040529081600082018054600181600116156101000203166002900480601f0160208091040260200160405190810160405280929190818152602001828054600181600116156101000203166002900480156111265780601f106110fb57610100808354040283529160200191611126565b820191906000526020600020905b81548152906001019060200180831161110957829003601f168201915b505050505081526020016001820160009054906101000a900473ffffffffffffffffffffffffffffffffffffffff1673ffffffffffffffffffffffffffffffffffffffff1673ffffffffffffffffffffffffffffffffffffffff1681526020016002820160009054906101000a900473ffffffffffffffffffffffffffffffffffffffff1673ffffffffffffffffffffffffffffffffffffffff1673ffffffffffffffffffffffffffffffffffffffff168152602001600382018054600181600116156101000203166002900480601f0160208091040260200160405190810160405280929190818152602001828054600181600116156101000203166002900480156112745780601f1061124957610100808354040283529160200191611274565b820191906000526020600020905b81548152906001019060200180831161125757829003601f168201915b50505050508152602001600482018054600181600116156101000203166002900480601f0160208091040260200160405190810160405280929190818152602001828054600181600116156101000203166002900480156113165780601f106112eb57610100808354040283529160200191611316565b820191906000526020600020905b8154815290600101906020018083116112f957829003601f168201915b50505050508152602001600582018054600181600116156101000203166002900480601f0160208091040260200160405190810160405280929190818152602001828054600181600116156101000203166002900480156113b85780601f1061138d576101008083540402835291602001916113b8565b820191906000526020600020905b81548152906001019060200180831161139b57829003601f168201915b50505050508152602001600682018054600181600116156101000203166002900480601f01602080910402602001604051908101604052809291908181526020018280546001816001161561010002031660029004801561145a5780601f1061142f5761010080835404028352916020019161145a565b820191906000526020600020905b81548152906001019060200180831161143d57829003601f168201915b50505050508152505081526020016007820160405180604001604052908160008201604051806040016040529081600082018054600181600116156101000203166002900480601f0160208091040260200160405190810160405280929190818152602001828054600181600116156101000203166002900480156115205780601f106114f557610100808354040283529160200191611520565b820191906000526020600020905b81548152906001019060200180831161150357829003601f168201915b50505050508152602001600182018054600181600116156101000203166002900480601f0160208091040260200160405190810160405280929190818152602001828054600181600116156101000203166002900480156115c25780601f10611597576101008083540402835291602001916115c2565b820191906000526020600020905b8154815290600101906020018083116115a557829003601f168201915b5050505050815250508152602001600282016040518061014001604052908160008201805480602002602001604051908101604052809291908181526020016000905b828210156116c1578382906000526020600020018054600181600116156101000203166002900480601f0160208091040260200160405190810160405280929190818152602001828054600181600116156101000203166002900480156116ad5780601f10611682576101008083540402835291602001916116ad565b820191906000526020600020905b81548152906001019060200180831161169057829003601f168201915b505050505081526020019060010190611605565b505050508152602001600182018054600181600116156101000203166002900480601f0160208091040260200160405190810160405280929190818152602001828054600181600116156101000203166002900480156117625780601f1061173757610100808354040283529160200191611762565b820191906000526020600020905b81548152906001019060200180831161174557829003601f168201915b50505050508152602001600282018054600181600116156101000203166002900480601f0160208091040260200160405190810160405280929190818152602001828054600181600116156101000203166002900480156118045780601f106117d957610100808354040283529160200191611804565b820191906000526020600020905b8154815290600101906020018083116117e757829003601f168201915b50505050508152602001600382018054600181600116156101000203166002900480601f0160208091040260200160405190810160405280929190818152602001828054600181600116156101000203166002900480156118a65780601f1061187b576101008083540402835291602001916118a6565b820191906000526020600020905b81548152906001019060200180831161188957829003601f168201915b50505050508152602001600482018054600181600116156101000203166002900480601f0160208091040260200160405190810160405280929190818152602001828054600181600116156101000203166002900480156119485780601f1061191d57610100808354040283529160200191611948565b820191906000526020600020905b81548152906001019060200180831161192b57829003601f168201915b5050505050815260200160058201805480602002602001604051908101604052809291908181526020016000905b82821015611a32578382906000526020600020018054600181600116156101000203166002900480601f016020809104026020016040519081016040528092919081815260200182805460018160011615610100020316600290048015611a1e5780601f106119f357610100808354040283529160200191611a1e565b820191906000526020600020905b815481529060010190602001808311611a0157829003601f168201915b505050505081526020019060010190611976565b505050508152602001600682018054600181600116156101000203166002900480601f016020809104026020016040519081016040528092919081815260200182805460018160011615610100020316600290048015611ad35780601f10611aa857610100808354040283529160200191611ad3565b820191906000526020600020905b815481529060010190602001808311611ab657829003601f168201915b50505050508152602001600782018054600181600116156101000203166002900480601f016020809104026020016040519081016040528092919081815260200182805460018160011615610100020316600290048015611b755780601f10611b4a57610100808354040283529160200191611b75565b820191906000526020600020905b815481529060010190602001808311611b5857829003601f168201915b50505050508152602001600882018054600181600116156101000203166002900480601f016020809104026020016040519081016040528092919081815260200182805460018160011615610100020316600290048015611c175780601f10611bec57610100808354040283529160200191611c17565b820191906000526020600020905b815481529060010190602001808311611bfa57829003601f168201915b50505050508152602001600982018054600181600116156101000203166002900480601f016020809104026020016040519081016040528092919081815260200182805460018160011615610100020316600290048015611cb95780601f10611c8e57610100808354040283529160200191611cb9565b820191906000526020600020905b815481529060010190602001808311611c9c57829003601f168201915b5050505050815250508152505081526020016013820160405180602001604052908160008201805480602002602001604051908101604052809291908181526020016000905b82821015611dbb578382906000526020600020018054600181600116156101000203166002900480601f016020809104026020016040519081016040528092919081815260200182805460018160011615610100020316600290048015611da75780601f10611d7c57610100808354040283529160200191611da7565b820191906000526020600020905b815481529060010190602001808311611d8a57829003601f168201915b505050505081526020019060010190611cff565b505050508152505081526020016014820160009054906101000a900460ff166003811115611de557fe5b6003811115611df057fe5b8152602001601582015481526020016016820154815260200160178201548152602001601882015481525050915050919050565b823373ffffffffffffffffffffffffffffffffffffffff16600082604051611e4c919061417b565b908152602001604051809103902060000160010160009054906101000a900473ffffffffffffffffffffffffffffffffffffffff1673ffffffffffffffffffffffffffffffffffffffff1614611ed7576040517f08c379a0000000000000000000000000000000000000000000000000000000008152600401611ece9061442a565b60405180910390fd5b6002600085604051611ee9919061417b565b908152602001604051809103902060140160006101000a81548160ff02191690836003811115611f1557fe5b021790555042600085604051611f2b919061417b565b90815260200160405180910390206017018190555082600085604051611f51919061417b565b90815260200160405180910390206007016002016009019080519060200190611f7b929190612b3a565b5081600085604051611f8d919061417b565b9081526020016040518091039020601501819055507f9bb5842d229eac67f028830d67e443a330e336630ba1212693461b1b691e20b884604051611fd19190614395565b60405180910390a150505050565b813373ffffffffffffffffffffffffffffffffffffffff16600082604051612007919061417b565b908152602001604051809103902060000160020160009054906101000a900473ffffffffffffffffffffffffffffffffffffffff1673ffffffffffffffffffffffffffffffffffffffff1614612092576040517f08c379a00000000000000000000000000000000000000000000000000000000081526004016120899061442a565b60405180910390fd5b6000836040516120a2919061417b565b90815260200160405180910390206013016000018290806001815401808255809150509060018203906000526020600020016000909192909190915090805190602001906120f1929190612b3a565b50507f9bb5842d229eac67f028830d67e443a330e336630ba1212693461b1b691e20b88360405161212291906142c1565b60405180910390a1505050565b803373ffffffffffffffffffffffffffffffffffffffff16600082604051612157919061417b565b908152602001604051809103902060000160010160009054906101000a900473ffffffffffffffffffffffffffffffffffffffff1673ffffffffffffffffffffffffffffffffffffffff16146121e2576040517f08c379a00000000000000000000000000000000000000000000000000000000081526004016121d99061442a565b60405180910390fd5b60016000836040516121f4919061417b565b908152602001604051809103902060140160006101000a81548160ff0219169083600381111561222057fe5b021790555060008083604051612236919061417b565b9081526020016040518091039020601501819055507f9bb5842d229eac67f028830d67e443a330e336630ba1212693461b1b691e20b88260405161227a9190614222565b60405180910390a15050565b6060813373ffffffffffffffffffffffffffffffffffffffff166000826040516122b0919061417b565b908152602001604051809103902060000160020160009054906101000a900473ffffffffffffffffffffffffffffffffffffffff1673ffffffffffffffffffffffffffffffffffffffff161461233b576040517f08c379a00000000000000000000000000000000000000000000000000000000081526004016123329061442a565b60405180910390fd5b6000808460405161234c919061417b565b908152602001604051809103902060130160000180549050905060008114156123ad576040518060400160405280600581526020017f656d707479000000000000000000000000000000000000000000000000000000815250925050612486565b6000846040516123bd919061417b565b908152602001604051809103902060130160000160018203815481106123df57fe5b906000526020600020018054600181600116156101000203166002900480601f01602080910402602001604051908101604052809291908181526020018280546001816001161561010002031660029004801561247d5780601f106124525761010080835404028352916020019161247d565b820191906000526020600020905b81548152906001019060200180831161246057829003601f168201915b50505050509250505b50919050565b813373ffffffffffffffffffffffffffffffffffffffff166000826040516124b4919061417b565b908152602001604051809103902060000160010160009054906101000a900473ffffffffffffffffffffffffffffffffffffffff1673ffffffffffffffffffffffffffffffffffffffff161461253f576040517f08c379a00000000000000000000000000000000000000000000000000000000081526004016125369061442a565b60405180910390fd5b81600084604051612550919061417b565b90815260200160405180910390206007016002016000820151816000019080519060200190612580929190612ada565b50602082015181600101908051906020019061259d929190612a5a565b5060408201518160020190805190602001906125ba929190612a5a565b5060608201518160030190805190602001906125d7929190612a5a565b5060808201518160040190805190602001906125f4929190612a5a565b5060a0820151816005019080519060200190612611929190612ada565b5060c082015181600601908051906020019061262e929190612a5a565b5060e082015181600701908051906020019061264b929190612a5a565b50610100820151816008019080519060200190612669929190612a5a565b50610120820151816009019080519060200190612687929190612a5a565b509050507f9bb5842d229eac67f028830d67e443a330e336630ba1212693461b1b691e20b8836040516126ba919061428c565b60405180910390a1505050565b813373ffffffffffffffffffffffffffffffffffffffff166000826040516126ef919061417b565b908152602001604051809103902060000160010160009054906101000a900473ffffffffffffffffffffffffffffffffffffffff1673ffffffffffffffffffffffffffffffffffffffff161461277a576040517f08c379a00000000000000000000000000000000000000000000000000000000081526004016127719061442a565b60405180910390fd5b8160008460405161278b919061417b565b9081526020016040518091039020601501819055507f9bb5842d229eac67f028830d67e443a330e336630ba1212693461b1b691e20b8836040516127cf919061432b565b60405180910390a1505050565b6060600160003373ffffffffffffffffffffffffffffffffffffffff1673ffffffffffffffffffffffffffffffffffffffff168152602001908152602001600020805480602002602001604051908101604052809291908181526020016000905b828210156128f9578382906000526020600020018054600181600116156101000203166002900480601f0160208091040260200160405190810160405280929190818152602001828054600181600116156101000203166002900480156128e55780601f106128ba576101008083540402835291602001916128e5565b820191906000526020600020905b8154815290600101906020018083116128c857829003601f168201915b50505050508152602001906001019061283d565b50505050905090565b813373ffffffffffffffffffffffffffffffffffffffff1660008260405161292a919061417b565b908152602001604051809103902060000160020160009054906101000a900473ffffffffffffffffffffffffffffffffffffffff1673ffffffffffffffffffffffffffffffffffffffff16146129b5576040517f08c379a00000000000000000000000000000000000000000000000000000000081526004016129ac9061442a565b60405180910390fd5b816000846040516129c6919061417b565b90815260200160405180910390206016018190555060026000846040516129ed919061417b565b908152602001604051809103902060140160006101000a81548160ff02191690836003811115612a1957fe5b02179055507f9bb5842d229eac67f028830d67e443a330e336630ba1212693461b1b691e20b883604051612a4d9190614360565b60405180910390a1505050565b828054600181600116156101000203166002900490600052602060002090601f016020900481019282601f10612a9b57805160ff1916838001178555612ac9565b82800160010185558215612ac9579182015b82811115612ac8578251825591602001919060010190612aad565b5b509050612ad69190612c1c565b5090565b828054828255906000526020600020908101928215612b29579160200282015b82811115612b28578251829080519060200190612b18929190612a5a565b5091602001919060010190612afa565b5b509050612b369190612c41565b5090565b828054600181600116156101000203166002900490600052602060002090601f016020900481019282601f10612b7b57805160ff1916838001178555612ba9565b82800160010185558215612ba9579182015b82811115612ba8578251825591602001919060010190612b8d565b5b509050612bb69190612c1c565b5090565b604051806103200160405280612bce612c6d565b8152602001612bdb612cd6565b8152602001612be8612cfd565b815260200160006003811115612bfa57fe5b8152602001600081526020016000815260200160008152602001600081525090565b612c3e91905b80821115612c3a576000816000905550600101612c22565b5090565b90565b612c6a91905b80821115612c665760008181612c5d9190612d10565b50600101612c47565b5090565b90565b6040518060e0016040528060608152602001600073ffffffffffffffffffffffffffffffffffffffff168152602001600073ffffffffffffffffffffffffffffffffffffffff168152602001606081526020016060815260200160608152602001606081525090565b604051806101800160405280612cea612d58565b8152602001612cf7612d72565b81525090565b6040518060200160405280606081525090565b50805460018160011615610100020316600290046000825580601f10612d365750612d55565b601f016020900490600052602060002090810190612d549190612c1c565b5b50565b604051806040016040528060608152602001606081525090565b604051806101400160405280606081526020016060815260200160608152602001606081526020016060815260200160608152602001606081526020016060815260200160608152602001606081525090565b6000612dd18235614618565b905092915050565b600082601f830112612dea57600080fd5b8135612dfd612df882614499565b61446c565b9150818183526020840193506020810190508360005b83811015612e435781358601612e298882612e61565b845260208401935060208301925050600181019050612e13565b5050505092915050565b6000612e59823561462a565b905092915050565b600082601f830112612e7257600080fd5b8135612e85612e80826144c1565b61446c565b91508082526020830160208301858383011115612ea157600080fd5b612eac83828461467d565b50505092915050565b600082601f830112612ec657600080fd5b8135612ed9612ed4826144ed565b61446c565b91508082526020830160208301858383011115612ef557600080fd5b612f0083828461467d565b50505092915050565b600060208284031215612f1b57600080fd5b612f25602061446c565b9050600082013567ffffffffffffffff811115612f4157600080fd5b612f4d84828501612dd9565b60008301525092915050565b600060408284031215612f6b57600080fd5b612f75604061446c565b9050600082013567ffffffffffffffff811115612f9157600080fd5b612f9d84828501612e61565b600083015250602082013567ffffffffffffffff811115612fbd57600080fd5b612fc984828501612e61565b60208301525092915050565b600060408284031215612fe757600080fd5b612ff1604061446c565b9050600082013567ffffffffffffffff81111561300d57600080fd5b61301984828501612e61565b600083015250602082013567ffffffffffffffff81111561303957600080fd5b61304584828501612e61565b60208301525092915050565b600060e0828403121561306357600080fd5b61306d60e061446c565b9050600082013567ffffffffffffffff81111561308957600080fd5b61309584828501612e61565b60008301525060206130a984828501612dc5565b60208301525060406130bd84828501612dc5565b604083015250606082013567ffffffffffffffff8111156130dd57600080fd5b6130e984828501612e61565b606083015250608082013567ffffffffffffffff81111561310957600080fd5b61311584828501612e61565b60808301525060a082013567ffffffffffffffff81111561313557600080fd5b61314184828501612e61565b60a08301525060c082013567ffffffffffffffff81111561316157600080fd5b61316d84828501612e61565b60c08301525092915050565b6000610140828403121561318c57600080fd5b61319761014061446c565b9050600082013567ffffffffffffffff8111156131b357600080fd5b6131bf84828501612dd9565b600083015250602082013567ffffffffffffffff8111156131df57600080fd5b6131eb84828501612e61565b602083015250604082013567ffffffffffffffff81111561320b57600080fd5b61321784828501612e61565b604083015250606082013567ffffffffffffffff81111561323757600080fd5b61324384828501612e61565b606083015250608082013567ffffffffffffffff81111561326357600080fd5b61326f84828501612e61565b60808301525060a082013567ffffffffffffffff81111561328f57600080fd5b61329b84828501612dd9565b60a08301525060c082013567ffffffffffffffff8111156132bb57600080fd5b6132c784828501612e61565b60c08301525060e082013567ffffffffffffffff8111156132e757600080fd5b6132f384828501612e61565b60e08301525061010082013567ffffffffffffffff81111561331457600080fd5b61332084828501612e61565b6101008301525061012082013567ffffffffffffffff81111561334257600080fd5b61334e84828501612e61565b6101208301525092915050565b6000610140828403121561336e57600080fd5b61337961014061446c565b9050600082013567ffffffffffffffff81111561339557600080fd5b6133a184828501612dd9565b600083015250602082013567ffffffffffffffff8111156133c157600080fd5b6133cd84828501612e61565b602083015250604082013567ffffffffffffffff8111156133ed57600080fd5b6133f984828501612e61565b604083015250606082013567ffffffffffffffff81111561341957600080fd5b61342584828501612e61565b606083015250608082013567ffffffffffffffff81111561344557600080fd5b61345184828501612e61565b60808301525060a082013567ffffffffffffffff81111561347157600080fd5b61347d84828501612dd9565b60a08301525060c082013567ffffffffffffffff81111561349d57600080fd5b6134a984828501612e61565b60c08301525060e082013567ffffffffffffffff8111156134c957600080fd5b6134d584828501612e61565b60e08301525061010082013567ffffffffffffffff8111156134f657600080fd5b61350284828501612e61565b6101008301525061012082013567ffffffffffffffff81111561352457600080fd5b61353084828501612e61565b6101208301525092915050565b60006040828403121561354f57600080fd5b613559604061446c565b9050600082013567ffffffffffffffff81111561357557600080fd5b61358184828501612f59565b600083015250602082013567ffffffffffffffff8111156135a157600080fd5b6135ad84828501613179565b60208301525092915050565b600061010082840312156135cc57600080fd5b6135d761010061446c565b9050600082013567ffffffffffffffff8111156135f357600080fd5b6135ff84828501613051565b600083015250602082013567ffffffffffffffff81111561361f57600080fd5b61362b8482850161353d565b602083015250604082013567ffffffffffffffff81111561364b57600080fd5b61365784828501612f09565b604083015250606061366b84828501612e4d565b606083015250608061367f848285016136c7565b60808301525060a0613693848285016136c7565b60a08301525060c06136a7848285016136c7565b60c08301525060e06136bb848285016136c7565b60e08301525092915050565b60006136d38235614661565b905092915050565b6000602082840312156136ed57600080fd5b600082013567ffffffffffffffff81111561370757600080fd5b61371384828501612eb5565b91505092915050565b6000806040838503121561372f57600080fd5b600083013567ffffffffffffffff81111561374957600080fd5b61375585828601612eb5565b925050602083013567ffffffffffffffff81111561377257600080fd5b61377e85828601612eb5565b9150509250929050565b60008060006060848603121561379d57600080fd5b600084013567ffffffffffffffff8111156137b757600080fd5b6137c386828701612eb5565b935050602084013567ffffffffffffffff8111156137e057600080fd5b6137ec86828701612eb5565b92505060406137fd868287016136c7565b9150509250925092565b6000806040838503121561381a57600080fd5b600083013567ffffffffffffffff81111561383457600080fd5b61384085828601612eb5565b925050602083013567ffffffffffffffff81111561385d57600080fd5b61386985828601612fd5565b9150509250929050565b6000806040838503121561388657600080fd5b600083013567ffffffffffffffff8111156138a057600080fd5b6138ac85828601612eb5565b925050602083013567ffffffffffffffff8111156138c957600080fd5b6138d58582860161335b565b9150509250929050565b600080604083850312156138f257600080fd5b600083013567ffffffffffffffff81111561390c57600080fd5b61391885828601612eb5565b9250506020613929858286016136c7565b9150509250929050565b60006020828403121561394557600080fd5b600082013567ffffffffffffffff81111561395f57600080fd5b61396b848285016135b9565b91505092915050565b60006139808383613af2565b905092915050565b613991816145c8565b82525050565b60006139a28261453e565b6139ac818561458a565b9350836020820285016139be85614526565b60005b848110156139f75783830388526139d9838351613974565b92506139e48261456c565b91506020880197506001810190506139c1565b508196508694505050505092915050565b6000613a1382614533565b613a1d8185614579565b935083602082028501613a2f85614519565b60005b84811015613a68578383038852613a4a838351613974565b9250613a558261455f565b9150602088019750600181019050613a32565b508196508694505050505092915050565b613a828161466b565b82525050565b6000613a9382614554565b613a9d81856145ac565b9350613aad81856020860161468c565b613ab6816146bf565b840191505092915050565b6000613acc82614554565b613ad681856145bd565b9350613ae681856020860161468c565b80840191505092915050565b6000613afd82614549565b613b07818561459b565b9350613b1781856020860161468c565b613b20816146bf565b840191505092915050565b6000613b386016836145ac565b91507f5365727669636520646f6573206e6f74206578697374000000000000000000006000830152602082019050919050565b6000613b78600d836145ac565b91507f534552564943455f5041555345000000000000000000000000000000000000006000830152602082019050919050565b6000613bb8600c836145ac565b91507f534552564943455f53544f5000000000000000000000000000000000000000006000830152602082019050919050565b6000613bf86013836145ac565b91507f534552564943455f4b554245434f4e54455854000000000000000000000000006000830152602082019050919050565b6000613c386012836145ac565b91507f416c7265616479207265676973746572656400000000000000000000000000006000830152602082019050919050565b6000613c786014836145ac565b91507f534552564943455f53544154455f4241434b55500000000000000000000000006000830152602082019050919050565b6000613cb86011836145ac565b91507f534552564943455f434f4e5441494e45520000000000000000000000000000006000830152602082019050919050565b6000613cf86010836145ac565b91507f534552564943455f5245504c49434153000000000000000000000000000000006000830152602082019050919050565b6000613d386010836145ac565b91507f49742773206e6f742072756e6e696e67000000000000000000000000000000006000830152602082019050919050565b6000613d786010836145ac565b91507f534552564943455f4c4f434154494f4e000000000000000000000000000000006000830152602082019050919050565b6000613db8600d836145ac565b91507f534552564943455f5354415254000000000000000000000000000000000000006000830152602082019050919050565b6000613df8600e836145ac565b91507f4e6f7420617574686f72697a65640000000000000000000000000000000000006000830152602082019050919050565b60006020830160008301518482036000860152613e488282613a08565b9150508091505092915050565b60006040830160008301518482036000860152613e728282613af2565b91505060208301518482036020860152613e8c8282613af2565b9150508091505092915050565b600060e0830160008301518482036000860152613eb68282613af2565b9150506020830151613ecb6020860182613988565b506040830151613ede6040860182613988565b5060608301518482036060860152613ef68282613af2565b91505060808301518482036080860152613f108282613af2565b91505060a083015184820360a0860152613f2a8282613af2565b91505060c083015184820360c0860152613f448282613af2565b9150508091505092915050565b6000610140830160008301518482036000860152613f6f8282613a08565b91505060208301518482036020860152613f898282613af2565b91505060408301518482036040860152613fa38282613af2565b91505060608301518482036060860152613fbd8282613af2565b91505060808301518482036080860152613fd78282613af2565b91505060a083015184820360a0860152613ff18282613a08565b91505060c083015184820360c086015261400b8282613af2565b91505060e083015184820360e08601526140258282613af2565b9150506101008301518482036101008601526140418282613af2565b91505061012083015184820361012086015261405d8282613af2565b9150508091505092915050565b600060408301600083015184820360008601526140878282613e55565b915050602083015184820360208601526140a18282613f51565b9150508091505092915050565b60006101008301600083015184820360008601526140cc8282613e99565b915050602083015184820360208601526140e6828261406a565b915050604083015184820360408601526141008282613e2b565b91505060608301516141156060860182613a79565b506080830151614128608086018261416c565b5060a083015161413b60a086018261416c565b5060c083015161414e60c086018261416c565b5060e083015161416160e086018261416c565b508091505092915050565b6141758161460e565b82525050565b60006141878284613ac1565b915081905092915050565b600060208201905081810360008301526141ac8184613997565b905092915050565b600060208201905081810360008301526141ce8184613a88565b905092915050565b600060608201905081810360008301526141f08186613a88565b905081810360208301526142048185613a88565b905081810360408301526142188184613a88565b9050949350505050565b6000604082019050818103600083015261423c8184613a88565b9050818103602083015261424f81613b6b565b905092915050565b600060408201905081810360008301526142718184613a88565b9050818103602083015261428481613bab565b905092915050565b600060408201905081810360008301526142a68184613a88565b905081810360208301526142b981613beb565b905092915050565b600060408201905081810360008301526142db8184613a88565b905081810360208301526142ee81613c6b565b905092915050565b600060408201905081810360008301526143108184613a88565b9050818103602083015261432381613cab565b905092915050565b600060408201905081810360008301526143458184613a88565b9050818103602083015261435881613ceb565b905092915050565b6000604082019050818103600083015261437a8184613a88565b9050818103602083015261438d81613d6b565b905092915050565b600060408201905081810360008301526143af8184613a88565b905081810360208301526143c281613dab565b905092915050565b600060208201905081810360008301526143e381613b2b565b9050919050565b6000602082019050818103600083015261440381613c2b565b9050919050565b6000602082019050818103600083015261442381613d2b565b9050919050565b6000602082019050818103600083015261444381613deb565b9050919050565b6000602082019050818103600083015261446481846140ae565b905092915050565b6000604051905081810181811067ffffffffffffffff8211171561448f57600080fd5b8060405250919050565b600067ffffffffffffffff8211156144b057600080fd5b602082029050602081019050919050565b600067ffffffffffffffff8211156144d857600080fd5b601f19601f8301169050602081019050919050565b600067ffffffffffffffff82111561450457600080fd5b601f19601f8301169050602081019050919050565b6000602082019050919050565b6000602082019050919050565b600081519050919050565b600081519050919050565b600081519050919050565b600081519050919050565b6000602082019050919050565b6000602082019050919050565b600082825260208201905092915050565b600082825260208201905092915050565b600082825260208201905092915050565b600082825260208201905092915050565b600081905092915050565b60006145d3826145ee565b9050919050565b6000600482106145e657fe5b819050919050565b600073ffffffffffffffffffffffffffffffffffffffff82169050919050565b6000819050919050565b600061462382614641565b9050919050565b60006004821061463957600080fd5b819050919050565b600073ffffffffffffffffffffffffffffffffffffffff82169050919050565b6000819050919050565b6000614676826145da565b9050919050565b82818337600083830152505050565b60005b838110156146aa57808201518184015260208101905061468f565b838111156146b9576000848401525b50505050565b6000601f19601f830116905091905056fea265627a7a72305820ca8ffb946a7e48f57bb5223b640e178f91c61aa052a16b7533940176dbde44916c6578706572696d656e74616cf50037",
  "source": "pragma solidity >=0.4.22 <0.9.0;\npragma experimental ABIEncoderV2;\n\ncontract ServiceRegistry {\n\n    enum State { Null, Ready, Running, Stop }\n\n    struct Header{\n        string id;\n        address manager;\n        address serviceAccount;\n        string companyName;\n        string companyEmail;\n        string companyContact;\n        string description;\n    }\n\n    \n    struct KubeContext{\n        string[] location;\n        string accessToken;\n        string nodeID;\n        string networkID;\n        string serviceProtocol;\n        string[] servicePoints;\n        string servicePort;\n        string nodeMountService;\n        string nodeMountETCD;\n        string secret;  //v2\n    }\n\n    struct Container{\n        string image;\n        string imageAccessUser;\n    }\n    \n    struct Runtime{\n        Container ct;\n        KubeContext kct;\n    }\n\n    //v3\n    struct Backup{\n        string[] logs;\n    }\n    \n    struct Service{\n        Header header;\n        Runtime runtime;\n        Backup backup; //v3\n        State state;\n        uint256 curReplicas;\n        uint256 serviceLocationIndex;\n        uint256 serviceStartTime;\n        uint256 serviceEndTime;\n    }\n    \n    event ChangeService(string serviceID, string changeType);\n    event NewService(string serviceID);\n    \n    mapping (string => Service) services;\n    mapping (address => string[]) managerServiceList; // string[]: array of service name \n    \n    \n    modifier onlyManager(string memory id){\n        require(services[id].header.manager == msg.sender, \"Not authorized\");\n        _;\n    }\n\n    \n    modifier onlyServiceAccount(string memory id){\n        require(services[id].header.serviceAccount == msg.sender, \"Not authorized\");\n        _;\n    }\n    \n    modifier hasNotService(Service memory service){\n        string memory id = service.header.id;\n        require(services[id].state == State.Null, \"Already registered\");\n        _;\n    }\n    \n    modifier hasService(string memory serviceID){\n        require(services[serviceID].state != State.Null, \"Service does not exist\");\n        _;\n    }\n\n    modifier isRunning(string memory serviceID){\n        require(services[serviceID].state == State.Running, \"It's not running\");\n        _;\n    }\n    \n\n    /* Manager service list*/\n    function getServiceList()\n    public view returns(string[] memory)\n    {\n        return managerServiceList[msg.sender];\n    }\n\n\n    /* Service Manager */\n    function register(Service memory service) \n    public hasNotService(service)\n    {\n        string memory id = service.header.id;\n        services[id] = service;\n        managerServiceList[service.header.manager].push(id);\n        emit NewService(id);\n    }\n\n    /* Service Manager-v2 */\n    function startService(string memory id, string memory secret ,uint256 replicas)\n    public onlyManager(id)\n    {\n        services[id].state = State.Running;\n        services[id].serviceStartTime = block.timestamp;\n        services[id].runtime.kct.secret = secret;\n        services[id].curReplicas = replicas;\n        emit ChangeService(id, \"SERVICE_START\");\n    }\n\n    /* Service Manager-v2 */\n    function updateReplicas(string memory id, uint256 replicas)\n    public onlyManager(id)\n    {\n        services[id].curReplicas = replicas;\n        emit ChangeService(id, \"SERVICE_REPLICAS\");\n    }\n\n    \n    /* Service Manager */\n    function getService(string memory id) \n    public view onlyManager(id)\n    returns (Service memory service)\n    {\n        return services[id];\n    }    \n    \n    /* Service Manager */\n    function updateKubeContext(string memory id, KubeContext memory kubeContext) \n    public onlyManager(id)\n    {\n        services[id].runtime.kct = kubeContext;\n        emit ChangeService(id, \"SERVICE_KUBECONTEXT\");\n    }\n    \n    /* Service Manager */\n    function updateContainer(string memory id, Container memory container) \n    public onlyManager(id)\n    {\n        services[id].runtime.ct = container;\n        emit ChangeService(id, \"SERVICE_CONTAINER\");\n    }\n\n    /* Service Manager-v2 */\n    function pauseService(string memory id)\n    public onlyManager(id)\n    {  \n        services[id].state = State.Ready;\n        services[id].curReplicas = 0;\n        emit ChangeService(id, \"SERVICE_PAUSE\"); \n    }\n    \n    /* Service Manager */\n    function stopService(string memory id) \n    public onlyManager(id)\n    {\n        services[id].state = State.Stop;\n        services[id].serviceEndTime = block.timestamp;\n        emit ChangeService(id, \"SERVICE_STOP\");\n    }\n\n    /* Leader Service-v3 */\n    function backupLog(string memory id, string memory log)\n    public onlyServiceAccount(id)\n    {\n        services[id].backup.logs.push(log);\n        emit ChangeService(id, \"SERVICE_STATE_BACKUP\");\n    }\n\n    /* Leader, Follower Service-v3 */\n    function getLatestBackupLogs(string memory id)\n    public view onlyServiceAccount(id)\n    returns (string memory log)\n    {\n        uint index = services[id].backup.logs.length;\n        if(index == 0) return \"empty\";\n        else return services[id].backup.logs[index-1];\n    }\n    \n    /* v3 */\n    function getAllBackupLogs(string memory id)\n    public view onlyManager(id)\n    returns (string[] memory logs)\n    {\n        return services[id].backup.logs;\n    }    \n    \n    \n    /* Leader Service-v2 */\n    function updateServiceLocation(string memory id, uint256 curIndex) \n    public onlyServiceAccount(id)\n    {\n        services[id].serviceLocationIndex = curIndex;\n        services[id].state = State.Running;\n        emit ChangeService(id, \"SERVICE_LOCATION\");\n    }\n\n    /* Service Client */\n    function getServiceLocation(string memory id) \n    public view hasService(id) isRunning(id)\n    returns (string memory protocol, string memory point, string memory port)\n    {\n        uint256 index = services[id].serviceLocationIndex;\n\t    point = services[id].runtime.kct.servicePoints[index];\n\t    port = services[id].runtime.kct.servicePort;\n        protocol = services[id].runtime.kct.serviceProtocol;\n    }\n\n}\n\n",
  "sourcePath": "/home/pslab154/klaytn/klaytn-testboard/contracts/ServiceRegistry.sol",
  "compiler": {
    "name": "solc",
    "version": "0.5.6+commit.b259423e.Emscripten.clang"
  },
  "schemaVersion": "2.0.2",
  "updatedAt": "2021-07-08T08:05:00.482Z"
}